:100000000C9434000C9451000C9451000C94510049
:100010000C9451000C9451000C9451000C9451001C
:100020000C9451000C9451000C9451000C9451000C
:100030000C9451000C9451000C9451000C945100FC
:100040000C9451000C9451000C9451000C945100EC
:100050000C9451000C9451000C9451000C945100DC
:100060000C9451000C94510011241FBECFEFD8E026
:10007000DEBFCDBF11E0A0E0B1E0ECE3F2E002C0F2
:1000800005900D92A630B107D9F721E0A6E0B1E0C6
:1000900001C01D92AA36B207E1F70E94DC000C9461
:1000A0001C010C9400001092C50083E38093C400EF
:1000B000E1ECF0E0808188618083E2ECF0E0808117
:1000C0008E6080830895E0ECF0E0908195FFFDCF95
:1000D0008093C6000895E0ECF0E080818823ECF77F
:1000E0008091C6000895CF93DF93EC018881882327
:1000F00031F021960E94630089918111FBCFDF913D
:10010000CF910895EF92FF920F931F93CF93DF93B8
:100110007C018C0108531F4FEC010E946B008993F6
:100120000C171D07D1F7F701E853FF4F1082DF913D
:10013000CF911F910F91FF90EF900895CF93DF9390
:10014000CDB7DEB7C85CD1090FB6F894DEBF0FBEDD
:10015000CDBFDC01FE0131969E0127533F4F8D91AB
:100160008193E217F307D9F760E071E0CE010196C1
:100170000E940201FC01892BA9F090819A3061F064
:10018000A6E0B1E0319620E030E09D932F5F3F4F35
:1001900091919A30D1F702C020E030E0F901EA5F96
:1001A000FE4F1082C853DF4F0FB6F894DEBF0FBE6C
:1001B000CDBFDF91CF910895CF93DF93CDB7DEB759
:1001C000C85CD1090FB6F894DEBF0FBECDBF0E9448
:1001D0005300CE0101960E948200CE0101960E943A
:1001E0009E0086E091E00E9473002FEF89E698E17F
:1001F000215080409040E1F700C000008AE00E945A
:100200006300E7CFFB0151915523A9F0BF01DC0149
:100210004D9145174111E1F759F4CD0101900020AE
:1002200049F04D9140154111C9F3FB014111EFCF48
:0C02300081E090E001970895F894FFCF62
:06023C004750524D430043
:00000001FF
