:100000000C9434000C9451000C9451000C94510049
:100010000C9451000C9451000C9451000C9451001C
:100020000C9451000C9451000C9451000C9451000C
:100030000C9451000C9451000C9451000C945100FC
:100040000C9451000C9451000C9451000C945100EC
:100050000C9451000C9451000C9451000C945100DC
:100060000C9451000C94510011241FBECFEFD8E026
:10007000DEBFCDBF11E0A0E0B1E0EAE4F2E002C0F3
:1000800005900D92A630B107D9F721E0A6E0B1E0C6
:1000900001C01D92AA36B207E1F70E94DD000C9460
:1000A00023010C9400001092C50083E38093C400E8
:1000B000E1ECF0E0808188618083E2ECF0E0808117
:1000C0008E6080830895E0ECF0E0908195FFFDCF95
:1000D0008093C6000895E0ECF0E080818823ECF77F
:1000E0008091C6000895CF93DF93EC018881882327
:1000F00031F021960E94630089918111FBCFDF913D
:10010000CF9108950F931F93CF93DF93EC018C0150
:100110000C591F4F0E946B0089930C171D07D1F7D4
:10012000DF91CF911F910F9108950F931F93CF935C
:10013000DF93CDB7DEB7C456D1090FB6F894DEBF52
:100140000FBECDBF8C01DC01FE0131969E012B5903
:100150003F4F8D918193E217F307D9F760E071E08B
:10016000CE0101960E9409019801281B390BE1E09C
:10017000F0E0EC0FFD1FE20FF31F9081943269F065
:10018000D901AA5FBE4FFE01E20FF31F32969D9385
:100190002F5F3F4F91919432D1F7F901EA5FFE4F03
:1001A0001082CC59DF4F0FB6F894DEBF0FBECDBF23
:1001B000DF91CF911F910F910895CF93DF93CDB72A
:1001C000DEB7C456D1090FB6F894DEBF0FBECDBF5F
:1001D0000E945300CE0101960E9482002FEF81E120
:1001E0009AE7215080409040E1F700C00000CE0126
:1001F00001960E9495002FEF89E698E121508040FA
:100200009040E1F700C0000086E091E00E9473009A
:10021000E1CFFB0151915523A9F0BF01DC014D91C4
:1002200045174111E1F759F4CD010190002049F043
:100230004D9140154111C9F3FB014111EFCF81E010
:0A02400090E001970895F894FFCFB5
:06024A004750524D430035
:00000001FF
